:020000040800F2
:10000000005000207D3C0008693B0008753B00085B
:100010007B3B0008813B0008873B00080000000094
:100020000000000000000000000000008D3B000800
:10003000993B000800000000A53B0008B13B000808
:10004000C53C0008C53C0008C53C0008C53C00088C
:10005000C53C0008C53C0008C53C0008C53C00087C
:10006000C53C0008C53C0008C53C0008C53C00086C
:10007000C53C0008C53C0008C53C0008C53C00085C
:10008000C53C0008C53C0008C53C0008C53C00084C
:10009000C53C0008C53C0008C53C0008C53C00083C
:1000A000C53C0008C53C0008C53C0008C53C00082C
:1000B000C53C0008C53C0008C53C0008C53C00081C
:1000C000C53C0008C53C0008C53C0008C53C00080C
:1000D000C53C0008C53C0008C53C0008C53C0008FC
:1000E000C53C0008C53C0008C53C000800000000F5
:1000F0000000000000000000000000000000000000
:0C01000000000000000000005FF808F1A3
:1001100010B5054C237833B9044B13B10448AFF341
:1001200000800123237010BD880000200000000023
:10013000BC4600080C4B43B10C4810B50C49AFF35A
:1001400000800C48036823B910BD0A48036833B91E
:100150007047094B002BF7D0BDE810401847064BFD
:10016000002BF5D0184700BF00000000BC46000877
:100170008C000020880000200000000081F0004179
:1001800002E000BF83F0004330B54FEA41044FEA7C
:10019000430594EA050F08BF90EA020F1FBF54EA17
:1001A000000C55EA020C7FEA645C7FEA655C00F0B3
:1001B000E2804FEA5454D4EB5555B8BF6D420CDD84
:1001C0002C4480EA020281EA030382EA000083EA07
:1001D000010180EA020281EA0303362D88BF30BDA7
:1001E00011F0004F4FEA01314FF4801C4CEA1131FD
:1001F00002D0404261EB410113F0004F4FEA03335C
:100200004CEA133302D0524263EB430394EA050FE6
:1002100000F0A780A4F10104D5F1200E0DDB02FA55
:100220000EFC22FA05F2801841F1000103FA0EF2E9
:10023000801843FA05F359410EE0A5F120050EF1AF
:10024000200E012A03FA0EFC28BF4CF0020C43FAE0
:1002500005F3C01851EBE37101F0004507D54FF0ED
:10026000000EDCF1000C7EEB00006EEB0101B1F53D
:10027000801F1BD3B1F5001F0CD349085FEA300083
:100280004FEA3C0C04F101044FEA445212F5800F8E
:1002900080F09A80BCF1004F08BF5FEA500C50F12B
:1002A000000041EB045141EA050130BD5FEA4C0C0E
:1002B000404141EB010111F4801FA4F10104E9D197
:1002C00091F0000F04BF01460020B1FA81F308BF8E
:1002D0002033A3F10B03B3F120020CDA0C3208DD5A
:1002E00002F1140CC2F10C0201FA0CF021FA02F135
:1002F0000CE002F11402D8BFC2F1200C01FA02F1A5
:1003000020FA0CFCDCBF41EA0C019040E41AA2BFC9
:1003100001EB0451294330BD6FEA04041F3C1CDA91
:100320000C340EDC04F11404C4F1200220FA04F0B1
:1003300001FA02F340EA030021FA04F345EA03015B
:1003400030BDC4F10C04C4F1200220FA02F001FA1D
:1003500004F340EA0300294630BD21FA04F029469F
:1003600030BD94F0000F83F4801306BF81F4801138
:100370000134013D4EE77FEA645C18BF7FEA655CAB
:1003800029D094EA050F08BF90EA020F05D054EA7D
:10039000000C04BF1946104630BD91EA030F1EBF82
:1003A0000021002030BD5FEA545C05D14000494186
:1003B00028BF41F0004130BD14F580043CBF01F579
:1003C000801130BD01F0004545F0FE4141F470015F
:1003D0004FF0000030BD7FEA645C1ABF194610463A
:1003E0007FEA655C1CBF0B46024650EA013406BF3B
:1003F00052EA033591EA030F41F4002130BD00BFFA
:1004000090F0000F04BF0021704730B54FF48064B6
:1004100004F132044FF000054FF0000150E700BF37
:1004200090F0000F04BF0021704730B54FF4806496
:1004300004F1320410F0004548BF40424FF0000183
:100440003EE700BF42004FEAE2014FEA31014FEAC6
:1004500002701FBF12F07F4393F07F4F81F0605115
:10046000704792F0000F14BF93F07F4F704730B584
:100470004FF4607401F0004521F0004120E700BF17
:1004800050EA010208BF704730B54FF000050AE09E
:1004900050EA010208BF704730B511F0004502D59F
:1004A000404261EB41014FF4806404F132045FEAA1
:1004B000915C3FF4DCAE4FF003025FEADC0C18BF46
:1004C00003325FEADC0C18BF033202EBDC02C2F13C
:1004D000200300FA03FC20FA02F001FA03FE40EACE
:1004E0000E0021FA02F11444C1E600BF4FF0FF3CB8
:1004F00006E000BF4FF0010C02E000BF4FF0010C1E
:100500004DF804CD4FEA410C7FEA6C5C4FEA430C96
:1005100018BF7FEA6C5C1BD001B050EA410C0CBFE5
:1005200052EA430C91EA030F02BF90EA020F002047
:10053000704710F1000F91EA030F58BF994208BFAE
:1005400090422CBFD8176FEAE37040F0010070476B
:100550004FEA410C7FEA6C5C02D150EA013C07D1C2
:100560004FEA430C7FEA6C5CD6D152EA033CD3D00D
:100570005DF8040B704700BF8446104662468C4607
:100580001946634600E000BF01B5FFF7B7FF00283A
:1005900048BF10F1000F01BD4DF808EDFFF7F4FF63
:1005A0000CBF012000205DF808FB00BF4DF808EDEE
:1005B000FFF7EAFF34BF012000205DF808FB00BF11
:1005C0004DF808EDFFF7E0FF94BF012000205DF833
:1005D00008FB00BF4DF808EDFFF7CEFF94BF0120E8
:1005E00000205DF808FB00BF4DF808EDFFF7C4FFE1
:1005F00034BF012000205DF808FB00BF4A0011D283
:1006000012F5001211D20DD56FF47873B3EB62526C
:100610000ED44FEAC12343F0004343EA505323FA78
:1006200002F070474FF00000704750EA013002D1ED
:100630004FF0FF3070474FF00000704780F00040EF
:1006400002E000BF81F0004142001FBF5FEA4103AA
:1006500092EA030F7FEA226C7FEA236C6AD04FEAAA
:100660001262D2EB1363C1BFD218414048404140EF
:10067000B8BF5B42192B88BF704710F0004F40F4A1
:10068000000020F07F4018BF404211F0004F41F4BD
:10069000000121F07F4118BF494292EA030F3FD089
:1006A000A2F1010241FA03FC10EB0C00C3F120039C
:1006B00001FA03F100F0004302D5494260EB40002B
:1006C000B0F5000F13D3B0F1807F06D340084FEA96
:1006D000310102F10102FE2A51D2B1F1004F40EB8B
:1006E000C25008BF20F0010040EA030070474900F3
:1006F00040EB000010F4000FA2F10102EDD1B0FABE
:1007000080FCACF1080CB2EB0C0200FA0CF0AABFB2
:1007100000EBC25052421843BCBFD0401843704750
:1007200092F0000F81F4000106BF80F40000013256
:10073000013BB5E74FEA41037FEA226C18BF7FEA2D
:10074000236C21D092EA030F04D092F0000F08BF6F
:100750000846704790EA010F1CBF0020704712F056
:100760007F4F04D1400028BF40F00040704712F195
:1007700000723CBF00F50000704700F0004343F0FA
:10078000FE4040F4000070477FEA226216BF084630
:100790007FEA23630146420206BF5FEA412390EAF3
:1007A000010F40F4800070474FF0000304E000BFE9
:1007B00010F0004348BF40425FEA000C08BF70479A
:1007C00043F0964301464FF000001CE050EA01025E
:1007D00008BF70474FF000030AE000BF50EA010273
:1007E00008BF704711F0004302D5404261EB410160
:1007F0005FEA010C02BF84460146002043F0B64385
:1008000008BFA3F18053A3F50003BCFA8CF2083AA9
:10081000A3EBC25310DB01FA02FC634400FA02FCB2
:10082000C2F12002BCF1004F20FA02F243EB0200B9
:1008300008BF20F00100704702F1200201FA02FC1B
:10084000C2F1200250EA4C0021FA02F243EB02000E
:1008500008BF20EADC7070474FF0FF0C1CEAD05252
:100860001EBF1CEAD15392EA0C0F93EA0C0F6FD013
:100870001A4480EA010C400218BF5FEA41211ED0F1
:100880004FF0006343EA501043EA5111A0FB0131DD
:100890000CF00040B1F5000F3EBF490041EAD371B2
:1008A0005B0040EA010062F17F02FD2A1DD8B3F12E
:1008B000004F40EBC25008BF20F00100704790F09D
:1008C000000F0CF0004C08BF49024CEA502040EAEF
:1008D00051207F3AC2BFD2F1FF0340EAC2507047B5
:1008E00040F400004FF00003013A5DDC12F1190FF3
:1008F000DCBF00F000407047C2F10002410021FA65
:1009000002F1C2F1200200FA02FC5FEA310040F17C
:10091000000053EA4C0308BF20EADC70704792F0F5
:10092000000F00F0004C02BF400010F4000F013A2D
:10093000F9D040EA0C0093F0000F01F0004C02BF28
:10094000490011F4000F013BF9D041EA0C018FE797
:100950000CEAD15392EA0C0F18BF93EA0C0F0AD09D
:1009600030F0004C18BF31F0004CD8D180EA0100C3
:1009700000F00040704790F0000F17BF90F0004F5C
:10098000084691F0000F91F0004F14D092EA0C0F3E
:1009900001D142020FD193EA0C0F03D14B0218BFD1
:1009A000084608D180EA010000F0004040F0FE4017
:1009B00040F40000704740F0FE4040F440007047B3
:1009C0004FF0FF0C1CEAD0521EBF1CEAD15392EA32
:1009D0000C0F93EA0C0F69D0A2EB030280EA010C22
:1009E00049024FEA402037D04FF0805343EA1111BB
:1009F00043EA10130CF000408B4238BF5B0042F119
:100A00007D024FF4000C8B4224BF5B1A40EA0C00BD
:100A1000B3EB510F24BFA3EB510340EA5C00B3EBEF
:100A2000910F24BFA3EB910340EA9C00B3EBD10FDD
:100A300024BFA3EBD10340EADC001B0118BF5FEA2F
:100A40001C1CE0D1FD2A3FF650AF8B4240EBC25058
:100A500008BF20F0010070470CF0004C4CEA502019
:100A60007F32C2BFD2F1FF0340EAC250704740F468
:100A700000004FF00003013A37E792F0000F00F05A
:100A8000004C02BF400010F4000F013AF9D040EAD8
:100A90000C0093F0000F01F0004C02BF490011F46C
:100AA000000F013BF9D041EA0C0195E70CEAD15364
:100AB00092EA0C0F08D142027FF47DAF93EA0C0F4B
:100AC0007FF470AF084676E793EA0C0F04D14B022F
:100AD0003FF44CAF08466EE730F0004C18BF31F0E1
:100AE000004CCAD130F000427FF45CAF31F00043DB
:100AF0007FF43CAF5FE700BF80B500AF084A084B0A
:100B00001B6843F010031360032000F027F9002056
:100B100000F008F802F05CFF0023184680BD00BF1B
:100B20000020024080B582B000AF7860124B1A6896
:100B3000124B1B7819464FF47A73B3FBF1F3B2FBF7
:100B4000F3F3184600F031F90346002B01D00123DE
:100B50000EE07B680F2B0AD8002279684FF0FF3037
:100B600000F007F9064A7B681360002300E00123C8
:100B700018460837BD4680BD200000200400002034
:100B80000000002080B400AF054B1B781A46054BCF
:100B90001B681344034A136000BFBD4680BC704706
:100BA00004000020DC04002080B400AF024B1B686E
:100BB0001846BD4680BC7047DC04002080B584B078
:100BC00000AF7860FFF7F0FFB8607B68FB60FB6800
:100BD000B3F1FF3F05D0094B1B781A46FB6813445D
:100BE000FB6000BFFFF7E0FF0246BB68D21AFB685C
:100BF0009A42F7D300BF1037BD4680BD04000020E5
:100C000080B485B000AF78607B6803F00703FB60B9
:100C10000C4BDB68BB60BA684FF6FF031340BB6048
:100C2000FB681A02BB68134343F0BF6343F400330D
:100C3000BB60044ABB68D36000BF1437BD4680BCAC
:100C4000704700BF00ED00E080B400AF044BDB68EC
:100C50001B0A03F007031846BD4680BC704700BF5F
:100C600000ED00E080B483B000AF03463960FB7153
:100C700097F90730002B0BDA0D49FB7903F00F03CE
:100C8000043B3A68D2B21201D2B20B441A7609E0A0
:100C9000084997F907303A68D2B21201D2B20B4430
:100CA00083F8002300BF0C37BD4680BC704700BFEF
:100CB00000ED00E000E100E080B489B000AFF86032
:100CC000B9607A60FB6803F00703FB61FB69C3F15D
:100CD0000703042B28BF0423BB61FB690433062BE5
:100CE00002D9FB69033B00E000237B610122BB6961
:100CF00002FA03F35A1EBB681A407B699A4001212D
:100D00007B6901FA03F3591E7B680B4013431846B5
:100D10002437BD4680BC704780B582B000AF786094
:100D20007B68013BB3F1807F01D301230FE00A4AC6
:100D30007B68013B53600F214FF0FF30FFF792FFBC
:100D4000054B00229A60044B07221A6000231846C4
:100D50000837BD4680BD00BF10E000E080B582B01E
:100D600000AF78607868FFF74BFF00BF0837BD46DB
:100D700080BD80B586B000AF0346B9607A60FB7372
:100D800000237B61FFF760FF78617A68B968786952
:100D9000FFF792FF024697F90F3011461846FFF70A
:100DA00061FF00BF1837BD4680BD80B582B000AF7F
:100DB00078607868FFF7B0FF034618460837BD46ED
:100DC00080BD80B582B000AF78607B68002B01D118
:100DD00001230EE07B685B79DBB2002B05D17B68D9
:100DE00000221A71786802F025FE7B6801225A7190
:100DF000002318460837BD4680BD000080B483B08C
:100E000000AF0023FB710D4B1B6903F08003002B27
:100E10000DD00A4B0A4A5A60084B0A4A5A60074BDF
:100E20001B6903F08003002B01D00123FB71FB79C8
:100E300018460C37BD4680BC704700BF00200240FA
:100E400023016745AB89EFCD80B400AF054A054B60
:100E50001B6943F08003136100231846BD4680BC24
:100E6000704700BF0020024080B400AF024BDB6936
:100E70001846BD4680BC7047E004002080B584B0B1
:100E800000AF7860FFF790FEF86010E07B68B3F188
:100E9000FF3F0CD07B68002B07D0FFF785FE024692
:100EA000FB68D21A7B689A4201D9032325E0154BCF
:100EB000DB6803F00103002BE8D1124BDB6803F081
:100EC0002003002B02D00F4B2022DA600D4BDB6891
:100ED00003F01003002B0BD10A4BDB6903F0010375
:100EE000002B05D1074BDB6803F00403002B03D074
:100EF00000F00AF8012300E0002318461037BD4631
:100F000080BD00BF0020024080B483B000AF00234A
:100F10007B60234BDB6803F01003002B09D0214BCF
:100F2000DB6943F002031F4AD3617B6843F010037F
:100F30007B601B4BDB6803F00403002B09D0194BCB
:100F4000DB6943F00103174AD3617B6843F0040374
:100F50007B60134BDB6903F00103002B0BD0114BBB
:100F6000DB6943F004030F4AD3610D4A0C4BDB6984
:100F700023F00103D3617B6840F20112934206D152
:100F8000074A074BDB6923F00103D36102E0044AFF
:100F90007B68D36000BF0C37BD4680BC704700BF84
:100FA00000200240E004002080B584B000AF7860EB
:100FB00039600123FB730023BB602F4B1B7E012B89
:100FC00001D1022353E02C4B01221A767B681B6867
:100FD000022B16D14CF25030FFF750FF0346002B86
:100FE00041D1012000F04CF84CF25030FFF746FFA1
:100FF0000346FB73214A214B1B6923F00403136151
:1010000031E04CF25030FFF739FF0346002B2AD174
:101010003B684FF0FF321A607B689B68BB6019E049
:10102000B86800F049F84CF25030FFF727FF03464C
:10103000FB73124A114B1B6923F002031361FB7B04
:10104000002B03D03B68BA681A600CE0BB6803F55C
:101050008063BB607B68DB689A027B689B681A448C
:10106000BB689A42DCD8044B00221A76FB7B1846F8
:101070001037BD4680BD00BFE004002000200240C4
:1010800080B483B000AF7860094B0022DA61094A6E
:10109000084B1B6943F004031361064A054B1B69A7
:1010A00043F04003136100BF0C37BD4680BC70475E
:1010B000E00400200020024080B483B000AF7860DC
:1010C0000B4B0022DA610B4A0A4B1B6943F0020307
:1010D0001361084A7B685361064A064B1B6943F05B
:1010E0004003136100BF0C37BD4680BC704700BF92
:1010F000E00400200020024080B48BB000AF786094
:1011000039600023FB610023BB6100237B61002366
:101110003B6200233B6100237B6227E101227B6A63
:1011200002FA03F3FB613B681A68FB691340BB6179
:10113000BA69FB699A4240F016813B685B68122BE2
:1011400034D0122B0DD8022B2BD0022B04D8002B1D
:1011500031D0012B1CD048E0032B43D0112B1BD0E6
:1011600043E0874A934226D0854A934206D8854A6F
:10117000934220D0844A93421DD036E0834A934262
:1011800019D0834A934216D0824A934213D02CE05E
:101190003B68DB683B6228E03B68DB6804333B620A
:1011A00023E03B68DB6808333B621EE03B68DB689A
:1011B0000C333B6219E03B689B68002B02D104238F
:1011C0003B6212E03B689B68012B05D108233B6220
:1011D0007B68FA691A6108E008233B627B68FA6958
:1011E0005A6102E000233B6200BFBB69FF2B01D8BC
:1011F0007B6801E07B680433FB60BB69FF2B02D88E
:101200007B6A9B0002E07B6A083B9B003B61FB68BA
:101210001A680F213B6901FA03F3DB431A40396A6C
:101220003B6901FA03F31A43FB681A603B685B6889
:1012300003F08053002B00F09680574A564B9B6971
:1012400043F001039361544B9B6903F00103BB60BE
:10125000BB68524A7B6A9B08023352F823307B6199
:101260007B6A03F003039B000F2202FA03F3DB43C4
:101270007A6913407B617B68494A934213D07B684B
:10128000484A93420DD07B68474A934207D07B6817
:10129000464A934201D1032306E0042304E00223DB
:1012A00002E0012300E000237A6A02F003029200C8
:1012B00093407A6913437B6138497B6A9B08023308
:1012C0007A6941F823203B685B6803F48033002B84
:1012D00006D03749364B1A68BB6913430B6006E0EA
:1012E0003349334B1A68BB69DB4313400B603B68DF
:1012F0005B6803F40033002B06D02D492C4B5A6851
:10130000BB6913434B6006E02949294B5A68BB6906
:10131000DB4313404B603B685B6803F48013002B96
:1013200006D02349224B9A68BB6913438B6006E0C1
:101330001F491F4B9A68BB69DB4313408B603B68B6
:101340005B6803F40013002B06D01949184BDA68C8
:10135000BB691343CB6006E01549154BDA68BB69DE
:10136000DB431340CB607B6A01337B627B6A0F2BCC
:101370007FF6D4AE00BF2C37BD4680BC704700BF9F
:1013800000002110000011100000121000003110A8
:101390000000321000002210001002400000014046
:1013A00000080140000C0140001001400014014001
:1013B0000004014080B489B000AF78603960002338
:1013C000FB610023BB6100237B6100233B619AE04A
:1013D0000122FB699A403B681340BB61BB69002B4B
:1013E00000F08E80BB69FF2B01D87B6801E07B6831
:1013F0000433FB60BB69FF2B02D8FB699B0002E052
:10140000FB69083B9B003B61FB681A680F213B6945
:1014100001FA03F3DB431A4004213B6901FA03F3A9
:101420001A43FB681A607B68DA68BB69DB431A40C1
:101430007B68DA603A4AFB699B08023352F8233032
:101440007B61FB6903F003039B000F2202FA03F3A5
:101450007A6913407B617B68324A934213D07B6880
:10146000314A93420DD07B68304A934207D07B6863
:101470002F4A934201D1032306E0042304E0022310
:1014800002E0012300E00023FA6902F00302920067
:1014900003FA02F27B699A4232D1FB6903F003033B
:1014A0009B000F2202FA03F37B611D48FB699B0836
:1014B0001B49FA699208023251F822107A69D24324
:1014C0000A40023340F823201A491A4B1A68BB69B4
:1014D000DB4313400B601749164B5A68BB69DB436B
:1014E00013404B601349134B9A68BB69DB431340AD
:1014F0008B6010490F4BDA68BB69DB431340CB604C
:10150000FB690133FB613A68FB6922FA03F3002BA4
:101510007FF45EAF00BF2437BD4680BC704700BF7C
:101520000000014000080140000C01400010014093
:10153000001401400004014080B483B000AF786023
:101540000B467B8013467B707B78002B03D07A8818
:101550007B681A6103E07B881A047B681A6100BF0C
:101560000C37BD4680BC704780B584B000AF786052
:101570000023FB600023BB607B68002B01D10123AB
:10158000E7E07B6893F83D30DBB2002B06D17B6847
:10159000002283F83C20786802F06AFA7B682422F3
:1015A00083F83D207B681B687A681268126822F015
:1015B00001021A6000F0B4FFB8607B685B68674A9C
:1015C000934207D8BB68664A934294BF0123002325
:1015D000DBB206E0BB68634A934294BF0123002359
:1015E000DBB2002B01D00123B3E0BB685E4AA2FB53
:1015F00003239B0CFB607B681B68FA685A607B685E
:101600001A687B685B6855498B4202D8FB680133D6
:1016100009E0FB684FF4967101FB03F35349A1FB0A
:1016200003139B09013313627B6819687B685B684D
:101630004A4A93420DD8BB685A1E7B685B685B00C0
:10164000B2FBF3F30133C3F30B03042B38BF0423C2
:101650004FE07B689B68002B11D1BB68581E7B68EC
:101660005A6813465B001344B0FBF3F30133C3F332
:101670000B03002B0CBF01230023DBB212E0BB687D
:10168000581E7B685A6813469B0013449A00134403
:10169000B0FBF3F30133C3F30B03002B0CBF0123A7
:1016A0000023DBB2002B01D0012322E07B689B6882
:1016B000002B0ED1BB68581E7B685A6813465B002E
:1016C0001344B0FBF3F30133C3F30B0343F40043C0
:1016D0000FE0BB68581E7B685A6813469B00134492
:1016E0009A001344B0FBF3F30133C3F30B0343F449
:1016F0004043CB617B681B687A68D1697A68126A5B
:101700000A431A607B681B687A6811697A68D26834
:101710000A439A607B681B687A6851697A689269A3
:101720000A43DA607B681B687A681268126842F0C4
:1017300001021A607B6800221A647B68202283F809
:101740003D207B6800221A637B68002283F83E20DC
:10175000002318461037BD4680BD00BFA08601009B
:101760007F841E00FF083D0083DE1B43D34D6210C3
:1017700080B588B002AFF860084611461A460346A5
:101780007B810B463B811346FB8000237B61FFF787
:101790000BFA7861FB6893F83D30DBB2202B40F008
:1017A000E7807B690093192301227449F86800F0EF
:1017B0007BF90346002B01D00223DAE0FB6893F8A3
:1017C0003C30012B01D10223D3E0FB68012283F8D6
:1017D0003C20FB681B681B6803F00103012B07D04A
:1017E000FB681B68FA681268126842F001021A600E
:1017F000FB681B68FA681268126822F400621A60BB
:10180000FB68212283F83D20FB68402283F83E20BC
:10181000FB6800221A64FB683A6A5A62FB68BA8C59
:101820005A85FB68564ADA62FB685B8D9AB2FB68A0
:101830001A85F8883A8979897B690193BB6A009394
:101840000346F86800F09EF80346002B5ED0FB6864
:101850001B6C042B05D1FB68002283F83C2001237C
:1018600087E0FB68002283F83C20032381E07A694B
:10187000B96AF86800F0D7F90346002B0FD0FB686F
:101880001B6C042B09D1FB681B68FA68126812688C
:1018900042F400721A6001236BE0032369E0FB68E5
:1018A0001A68FB685B6A581CF96848621B78136108
:1018B000FB681B8D013B9AB2FB681A85FB685B8D48
:1018C0009BB2013B9AB2FB685A85FB681B685B6957
:1018D00003F00403042B19D1FB681B8D002B15D0DA
:1018E000FB681A68FB685B6A581CF96848621B78D9
:1018F0001361FB681B8D013B9AB2FB681A85FB687C
:101900005B8D9BB2013B9AB2FB685A85FB681B8DCD
:10191000002BACD17A69B96AF86800F0C1F90346C6
:10192000002B0FD0FB681B6C042B09D1FB681B68D4
:10193000FA681268126842F400721A60012318E013
:10194000032316E0FB681B68FA681268126842F409
:1019500000721A60FB68202283F83D20FB68002299
:1019600083F83E20FB68002283F83C20002300E03F
:10197000022318461837BD4680BD00BF0200100084
:101980000000FFFF80B588B002AFF860084611463E
:101990001A4603467B810B463B811346FB80FB685E
:1019A0001B68FA681268126842F480721A607B6AD7
:1019B00000933B6A00224FF00111F86800F074F8C0
:1019C0000346002B01D0032368E0FB681B687A897B
:1019D000D2B202F0FE021A617B6A3A6A3149F868B3
:1019E00000F0B3F80346002B07D0FB681B6C042BF8
:1019F00001D1012352E0032350E000237B61FB6807
:101A00001B685B697B61FB681B689B697B617B6909
:101A10007A6A396AF86800F006F90346002B0FD09D
:101A2000FB681B6C042B09D1FB681B68FA68126801
:101A3000126842F400721A6001232FE003232DE0A4
:101A4000FB88012B05D1FB681B683A89D2B21A6169
:101A500023E0FB681B683A89120A92B2D2B21A617B
:101A60007A6A396AF86800F0DEF80346002B0FD076
:101A7000FB681B6C042B09D1FB681B68FA681268B1
:101A8000126842F400721A60012307E0032305E0A4
:101A9000FB681B683A89D2B21A61002318461837CE
:101AA000BD4680BD0200010080B584B000AFF86083
:101AB000B9603B601346FB711FE03B68B3F1FF3F29
:101AC0001BD03B68002B07D0FFF76EF80246BB69BE
:101AD000D21A3B689A4210D9FB6800221A63FB684D
:101AE000202283F83D20FB68002283F83E20FB681B
:101AF000002283F83C20032323E0BB681B0CDBB2ED
:101B0000012B0DD1FB681B685B69DA43BB6813408E
:101B10009BB2002B0CBF01230023DBB21A460CE062
:101B2000FB681B689B69DA43BB6813409BB2002BC0
:101B30000CBF01230023DBB21A46FB799A42BCD0CA
:101B4000002318461037BD4680BD80B584B000AF75
:101B5000F860B9607A603B6040E0FB681B685B69D5
:101B600003F48063B3F5806F1CD1FB681B68FA68CF
:101B70001268126842F400721A60FB681B686FF406
:101B800080625A61FB6804221A64FB6800221A63AF
:101B9000FB68202283F83D20FB68002283F83C206C
:101BA00001233CE07B68B3F1FF3F17D07B68002B3B
:101BB00007D0FEF7F9FF02463B68D21A7B689A42CB
:101BC0000CD9FB6800221A63FB68202283F83D20B1
:101BD000FB68002283F83C20032320E0BB681B0C39
:101BE000DBB2012B0CD1FB681B685B69DA43BB6875
:101BF00013409BB2002B14BF01230023DBB20BE088
:101C0000FB681B689B69DA43BB6813409BB2002BDF
:101C100014BF01230023DBB2002B9ED10023184602
:101C20001037BD4680BD80B584B000AFF860B960A4
:101C30007A6029E0F86800F070F80346002B01D0C4
:101C4000012329E0BB68B3F1FF3F1DD0BB68002B27
:101C500007D0FEF7A9FF02467B68D21ABB689A42FA
:101C600012D9FB681B6C43F02002FB681A64FB6806
:101C700000221A63FB68202283F83D20FB680022C3
:101C800083F83C20032307E0FB681B685B6903F0D3
:101C90008003802BCED1002318461037BD4680BD6F
:101CA00080B584B000AFF860B9607A6029E0F86868
:101CB00000F033F80346002B01D0012329E0BB6874
:101CC000B3F1FF3F1DD0BB68002B07D0FEF76CFFC0
:101CD00002467B68D21ABB689A4212D9FB681B6C19
:101CE00043F02002FB681A64FB6800221A63FB6859
:101CF000202283F83D20FB68002283F83C20032348
:101D000007E0FB681B685B6903F00403042BCED17A
:101D1000002318461037BD4680BD80B483B000AFA5
:101D200078607B681B685B6903F48063B3F5806F40
:101D300014D17B681B686FF480625A617B6804224F
:101D40001A647B6800221A637B68202283F83D2096
:101D50007B68002283F83C20012300E00023184622
:101D60000C37BD4680BC704780B586B000AF786048
:101D700000233B617B681B6803F00103002B00F02C
:101D80008780924B5B6803F00C03042B0CD08F4BC5
:101D90005B6803F00C03082B12D18C4B5B6803F4D7
:101DA0008033B3F5803F0BD1884B1B6803F40033BD
:101DB000002B6CD07B685B68002B68D101232DE27F
:101DC0007B685B68B3F5803F06D1804A7F4B1B6818
:101DD00043F4803313602EE07B685B68002B0CD1EA
:101DE0007A4A7A4B1B6823F480331360774A774B27
:101DF0001B6823F4802313601DE07B685B68B3F5E8
:101E0000A02F0CD1714A714B1B6843F480231360DF
:101E10006E4A6E4B1B6843F4803313600BE06B4AD1
:101E20006A4B1B6823F480331360684A674B1B6856
:101E300023F4802313607B685B68002B13D0FEF7CC
:101E4000B3FE386108E0FEF7AFFE02463B69D31AE5
:101E5000642B01D90323E1E15C4B1B6803F40033DD
:101E6000002BF0D014E0FEF79FFE386108E0FEF78B
:101E70009BFE02463B69D31A642B01D90323CDE1B3
:101E8000524B1B6803F40033002BF0D100E000BF7D
:101E90007B681B6803F00203002B63D04B4B5B682D
:101EA00003F00C03002B0BD0484B5B6803F00C03D2
:101EB000082B1CD1454B5B6803F48033002B16D1F3
:101EC000424B1B6803F00203002B05D07B681B69A3
:101ED000012B01D00123A1E13C493C4B1B6823F0BD
:101EE000F8027B685B69DB0013430B603AE07B68B8
:101EF0001B69002B20D0364B01221A60FEF754FEDE
:101F0000386108E0FEF750FE02463B69D31A022B07
:101F100001D9032382E12D4B1B6803F00203002B40
:101F2000F0D02A49294B1B6823F0F8027B685B69D3
:101F3000DB0013430B6015E0254B00221A60FEF70F
:101F400033FE386108E0FEF72FFE02463B69D31AE4
:101F5000022B01D9032361E11C4B1B6803F0020330
:101F6000002BF0D17B681B6803F00803002B39D0ED
:101F70007B689B69002B19D0164B01221A60FEF773
:101F800013FE386108E0FEF70FFE02463B69D31AE4
:101F9000022B01D9032341E10C4B5B6A03F00203DE
:101FA000002BF0D0012000F0CFFA1BE0094B0022FB
:101FB0001A60FEF7F9FD38610EE0FEF7F5FD024606
:101FC0003B69D31A022B07D9032327E100100240F3
:101FD0000000424280044242924B5B6A03F00203DB
:101FE000002BEAD17B681B6803F00403002B00F090
:101FF000A6800023FB758B4BDB6903F08053002B1D
:102000000DD1884A874BDB6943F08053D361854B00
:10201000DB6903F08053FB60FB680123FB75824B97
:102020001B6803F48073002B18D17F4A7E4B1B681A
:1020300043F480731360FEF7B7FD386108E0FEF7E4
:10204000B3FD02463B69D31A642B01D90323E5E0B3
:10205000754B1B6803F48073002BF0D07B68DB6842
:10206000012B06D16F4A6F4B1B6A43F001031362C9
:102070002DE07B68DB68002B0CD16A4A694B1B6A38
:1020800023F001031362674A664B1B6A23F00403C3
:1020900013621CE07B68DB68052B0CD1614A614B45
:1020A0001B6A43F0040313625E4A5E4B1B6A43F0F3
:1020B000010313620BE05B4A5A4B1B6A23F00103D6
:1020C0001362584A574B1B6A23F0040313627B6860
:1020D000DB68002B15D0FEF767FD38610AE0FEF7DC
:1020E00063FD02463B69D31A41F28832934201D91B
:1020F000032393E04B4B1B6A03F00203002BEED04B
:1021000014E0FEF751FD38610AE0FEF74DFD02468E
:102110003B69D31A41F28832934201D903237DE00F
:10212000404B1B6A03F00203002BEED1FB7D012B19
:1021300005D13C4A3B4BDB6923F08053D3617B687C
:10214000DB69002B69D0374B5B6803F00C03082B6D
:1021500061D07B68DB69022B46D1344B00221A60C8
:10216000FEF722FD386108E0FEF71EFD02463B69DE
:10217000D31A022B01D9032350E02A4B1B6803F02A
:102180000073002BF0D17B681B6AB3F5803F08D148
:102190002449244B5B6823F400327B689B6813431B
:1021A0004B6020481F4B5B6823F474127B68196AEC
:1021B0007B685B6A0B43134343601C4B01221A602C
:1021C000FEF7F2FC386108E0FEF7EEFC02463B69E0
:1021D000D31A022B01D9032320E0124B1B6803F012
:1021E0000073002BF0D018E0104B00221A60FEF7AD
:1021F000DBFC386108E0FEF7D7FC02463B69D31AE6
:10220000022B01D9032309E0064B1B6803F000737E
:10221000002BF0D101E0012300E00023184618371D
:10222000BD4680BD00100240007000406000424288
:1022300080B584B000AF786039600023FB607E4BCE
:102240001B6803F007023B689A4210D27A497A4B26
:102250001B6823F007023B6813430B60764B1B6837
:1022600003F007023B689A4201D00123E0E07B685B
:102270001B6803F00203002B20D07B681B6803F06F
:102280000403002B05D06D4A6C4B5B6843F4E0639C
:1022900053607B681B6803F00803002B05D0674A76
:1022A000664B5B6843F4605353606449634B5B68FF
:1022B00023F0F0027B689B6813434B607B681B68CC
:1022C00003F00103002B6AD07B685B68012B07D108
:1022D0005A4B1B6803F40033002B15D10123A7E0F0
:1022E0007B685B68022B07D1544B1B6803F00073BB
:1022F000002B09D101239BE0504B1B6803F0020324
:10230000002B01D1012393E04C494C4B5B6823F037
:1023100003027B685B6813434B60FEF745FCF86083
:102320007B685B68012B12D10AE0FEF73DFC024698
:10233000FB68D31A41F28832934201D9032377E034
:102340003E4B5B6803F00C03042BEED127E07B6867
:102350005B68022B1DD10AE0FEF726FC0246FB68F3
:10236000D31A41F28832934201D9032360E0334B00
:102370005B6803F00C03082BEED110E0FEF714FCB1
:102380000246FB68D31A41F28832934201D90323F3
:102390004EE02A4B5B6803F00C03002BEED1264B7A
:1023A0001B6803F007023B689A4210D92249224B6E
:1023B0001B6823F007023B6813430B601E4B1B682E
:1023C00003F007023B689A4201D0012330E07B68AA
:1023D0001B6803F00403002B08D01849174B5B68F7
:1023E00023F4E0627B68DB6813434B607B681B6807
:1023F00003F00803002B09D01049104B5B6823F44D
:1024000060527B681B69DB0013434B6000F01CF8D3
:1024100001460A4B5B681B0903F00F03084AD35CB3
:1024200021FA03F3074A13600020FEF77BFB002329
:1024300018461037BD4680BD002002400010024003
:10244000307000082000002090B48AB000AF2A4B02
:102450003C1D0FCB84E80F00284B1B883B800023DA
:10246000FB610023BB6100237B6200237B610023AF
:102470003B62234B5B68FB61FB6903F00C03042B9D
:1024800002D0082B03D02DE01E4B3B622DE0FB69F0
:102490009B0C03F00F0307F12802134413F8243CAC
:1024A0007B61FB6903F48033002B13D0144B5B6812
:1024B0005B0C03F0010307F12802134413F8283CD6
:1024C000BB617B690F4A02FB03F2BB69B2FBF3F30A
:1024D0007B6204E07B690C4A02FB03F37B627B6A4C
:1024E0003B6202E0074B3B6200BF3B6A184628375D
:1024F000BD4690BC704700BFD4460008E4460008C3
:102500000010024000127A0000093D0080B400AFC4
:10251000024B1B681846BD4680BC70472000002057
:1025200080B500AFFFF7F2FF0146054B5B681B0A61
:1025300003F00703034AD35C21FA03F3184680BD76
:10254000001002404070000880B485B000AF786091
:102550000A4B1B680A4AA2FB03235B0A7A6802FB48
:1025600003F3FB6000BFFB685A1EFA60002BF9D131
:1025700000BF1437BD4680BC704700BF200000205C
:10258000D34D621080B586B000AF7860396000230B
:102590007B6100233B610023FB607B68002B01D142
:1025A000012381E07B6893F83D30DBB2002B06D13C
:1025B0007B68002283F83C20786801F097FA7B68FA
:1025C000022283F83D207B681B687A681268926853
:1025D00022F007029A607B681A687B680433194608
:1025E000104600F09DF87B681B689B687B617B68E8
:1025F0001B689B693B617B681B681B6AFB603B68CF
:102600001B687A6913437B613B6923F4407323F0B1
:1026100003033B613B689A683B689B691B02134359
:102620003A6913433B613B6923F4406323F00C0395
:102630003B613B6923F4704323F0F0033B613B684B
:10264000DA683B68DB691B0213433A6913433B6159
:102650003B681B691A013B681B6A1B0313433A69F9
:1026600013433B61FB6823F02203FB60FB6823F00C
:102670008803FB603B685A683B685B691B01134336
:10268000FA681343FB607B681B687A699A607B6811
:102690001B683A699A617B681B68FA681A627B68F2
:1026A000012283F83D20002318461837BD4680BD1F
:1026B00080B582B000AF786039603B68002B02D0F3
:1026C000042B08D00FE07B681B680122002118460C
:1026D00000F08CF816E07B681B6801220421184684
:1026E00000F084F80EE07B681B6801220021184688
:1026F00000F07CF87B681B6801220421184600F07A
:1027000075F800BF7B681B687A681268126842F02F
:1027100001021A60002318460837BD4680BD00003C
:1027200080B485B000AF786039600023FB607B68BF
:102730001B68FB607B682A4A93420BD07B68B3F12D
:10274000804F07D07B68274A934203D07B68264A94
:10275000934208D1FB6823F07003FB603B685B6821
:10276000FA681343FB607B681D4A93420BD07B6879
:10277000B3F1804F07D07B681A4A934203D07B683D
:10278000194A934208D1FB6823F44073FB603B680D
:10279000DB68FA681343FB60FB6823F08003FB608F
:1027A0003B685B69FA681343FB607B68FA681A60F0
:1027B0003B689A687B68DA623B681A687B689A6251
:1027C0007B68074A934203D13B681A697B681A63A6
:1027D0007B6801225A6100BF1437BD4680BC704738
:1027E000002C0140000400400008004080B487B085
:1027F00000AFF860B9607A6000237B610122BB689A
:1028000002FA03F37B61FB681A6A7B69DB431A40B7
:10281000FB681A62FB681A6A7968BB6801FA03F3FD
:102820001A43FB681A6200BF1C37BD4680BC704764
:1028300080B483B000AF786039607B6893F83C3037
:10284000012B01D1022332E07B68012283F83C2076
:102850007B68022283F83D207B681B687A681268D7
:10286000526822F070025A607B681B687A681268AE
:1028700051683A6812680A435A607B681B687A6834
:102880001268926822F080029A607B681B687A68FE
:10289000126891683A6852680A439A607B6801221C
:1028A00083F83D207B68002283F83C2000231846F3
:1028B0000C37BD4680BC704780B592B000AF154B59
:1028C00000221A60134B144A9A60124B0222DA60FB
:1028D00000233B64FEF792FA07F1400319460D48C6
:1028E000FEF762FB0346002B0ED0FEF7BDFA7864BC
:1028F0003B4640220021184601F09CFA38467B6C8A
:10290000064A402101F09EFAFEF79EFA00BF4837C2
:10291000BD4680BDA400002000F80108E84600087C
:1029200080B584B000AF78600B467B807B88FB81EC
:1029300013E07B685A1C7A601B78FF2B03D1FB895C
:10294000013BFB8101E07B88FB817B68094A934264
:1029500003D1FFF7B1FF084B07E0FB89002BE8D15B
:102960007B887A68D31A7B607B6818461037BD462F
:1029700080BD00BFFFFF010800F8010880B485B0EA
:1029800000AF7860104B1B68104A934217D00E4B73
:102990001B680A3BFB6000237B810CE07B895B00AA
:1029A0007A681344FA6812881A80FB680233FB6065
:1029B0007B8901337B817B89042BEFD900E000BF49
:1029C0001437BD4680BC7047B800002000F80108ED
:1029D00080B483B000AF78600A4B1B680A4AA2FB40
:1029E0000323DB0D7A6802FB03F37B6000BF7B6887
:1029F0005A1E7A60002BFAD100BF0C37BD4680BC4E
:102A0000704700BF20000020B5FA9BEE80B500AFF4
:102A100008210B48FEF7CEFC094A094B1B6843F41A
:102A200040531360064A064B1B6843F4804313600F
:102A3000034A034B1B6823F40043136000BF80BDAF
:102A40000008014080B582B000AF134A124BDB682A
:102A500023F00803D36040F2E510FFF7B9FF0E4AF8
:102A60000D4BDB6843F00803D3604120FFF7B0FF54
:102A7000094B9B689BB203F00803FB804FF4FA708C
:102A8000FFF7A6FFFB88002B14BF01230023DBB256
:102A900018460837BD4680BD0008014080B582B0A9
:102AA00000AF0023FB71124A114BDB6823F00803CF
:102AB000D3600220FFF78CFF0D4A0D4BDB6843F01B
:102AC0000803D3600D20FFF783FF094B9B6803F0D9
:102AD0000803002B14BF01230023DBB2FB712D2060
:102AE000FFF776FFFB7918460837BD4680BD00BF6B
:102AF0000008014080B582B000AF0023FB710023C5
:102B0000BB710DE0FFF7CAFF03461A46BB7902FA14
:102B100003F3DAB2FB791344FB71BB790133BB7168
:102B2000BB79072BEED9FB7918460837BD4680BD27
:102B300080B582B000AF0346FB71114A104BDB68D1
:102B400023F00803D360FB79002B01D0032300E0BE
:102B500041231846FFF73CFF094A094BDB6843F065
:102B60000803D360FB79002B01D0412300E003234D
:102B70001846FFF72DFF00BF0837BD4680BD00BFD8
:102B80000008014080B584B000AF0346FB7100230C
:102B9000FB7310E0FA79FB7B42FA03F3DBB203F03C
:102BA0000103DBB21846FFF7C3FF0520FFF710FF54
:102BB000FB7B0133FB73FB7B072BEBD900BF10378B
:102BC000BD4680BD80B582B000AF0346FB71FFF704
:102BD00039FF0346002B01D0012312E0FB79002BC3
:102BE0000ED1CC20FFF7CEFF4E20FFF7CBFF6420A5
:102BF000FFF7C8FF9E20FFF7C5FF7F20FFF7C2FF4A
:102C0000002318460837BD4680BD80B582B000AFAE
:102C100003460A46FB711346BB71FFF713FFFB79AE
:102C2000002B02D1CC20FFF7ADFF4420FFF7AAFF15
:102C300000BF0837BD4680BD90B585B000AF0346E4
:102C40003960FB711346BB71FFF7FCFEFB79002B6B
:102C500002D1CC20FFF796FFBE20FFF793FF0023A1
:102C6000FB7309E0FB7B3A68D418FFF743FF034688
:102C70002370FB7B0133FB73FB7B072BF2D900BF77
:102C80001437BD4690BD80B483B000AF0346FB80CF
:102C9000FB8803F40063002B01D0012300E0002334
:102CA00018460C37BD4680BC704780B584B000AF75
:102CB0000346FB80FB881B1103F07F031846FDF7DA
:102CC00077FD0346FB60FB8803F00F031846FDF712
:102CD0006FFD03464FF083411846FDF771FE034632
:102CE0001946F868FDF7B0FC0346FB60FB68184620
:102CF0001037BD4680BD000080B400AF144A144BAD
:102D0000DB6823F08073D360114A114BDB6843F01A
:102D10008073D3600F4A0F4B1B6823F001031360CD
:102D20000C4A0C4B1B6843F001031360094B002253
:102D30005A6000BF00BF00BF064B5B68002B01D08C
:102D4000002300E001231846BD4680BC704700BF49
:102D5000F0ED00E0001000E080B483B000AF7860D8
:102D60007B68084A1A607B68074A5A607B68074A92
:102D70009A607B68064ADA6000BF0C37BD4680BCAB
:102D8000704700BF146F0008206F00082C6F000808
:102D9000386F000880B582B000AF78600021002055
:102DA00000F0FEFD7B681868184A012306CA00F08F
:102DB000D1FD00F0BFFC0F21002000F0F1FD7B6889
:102DC0005868124A012306CA00F0C4FD00F0B2FCA4
:102DD0001E21002000F0E4FD7B6898680B4A012367
:102DE00006CA00F0B7FD00F0A5FC2D21002000F080
:102DF000D7FD7B68D868054A012306CA00F0AAFD02
:102E000000F098FC00BF0837BD4680BD10000020D0
:102E100090B5C3B004AFD34B07F1B0040FCB84E837
:102E20000F00D14B07F1A0040FCB84E80F00002363
:102E3000C7F8F0300023C7F8EC300023C7F8E830BB
:102E40000023C7F8E430022387F8E330012387F832
:102E5000E2300023A7F8E030002387F8DF300023BA
:102E600087F8DE300023A7F8DC30002387F8DB305A
:102E700007F1200340220021184600F0DBFFFDF798
:102E80003BFE00F033FA00F00DFB00F089FA00F091
:102E9000B5FA00F071FA00F0BFFBFFF72DFF4FF419
:102EA0007A70FDF78BFE1821B048FFF701FCD7F8C8
:102EB000A030AF4A1361D7F8A430AD4A5361D7F8B8
:102EC000A830AB4A9361D7F8AC30A94AD361D7F8A0
:102ED000B030A74A1362D7F8B430A54A5362D7F886
:102EE000B830A34A9362D7F8BC30A14AD362A04B52
:102EF000C7F8D430D7F8D400FFF72EFFD7F8D400A6
:102F0000FFF748FF4FF4FA70FDF758FE07F1B003E2
:102F1000C7F8D03007F1A003C7F8CC300A21954894
:102F2000FFF7FEFC0246944B1A60944A07F10C032B
:102F300007CA03C31A80002000F0DAFB002100203A
:102F400000F02EFD97F8DF3007F120008C4A402179
:102F500000F078FF8B4A07F12000012306CA00F039
:102F6000F9FC97F8DE3007F12000874A402100F095
:102F700069FF0F21002000F013FD824A07F12000B5
:102F8000012306CA00F0E6FCB7F8DC3007F12000A8
:102F90007E4A402100F056FF1E21002000F000FD77
:102FA000784A07F12000012306CA00F0D3FC07F19C
:102FB0002000774B774A402100F044FF2D2100206C
:102FC00000F0EEFC6F4A07F12000012306CA00F072
:102FD000C1FC00F0AFFB4FF4FA70FDF7EFFD3B468C
:102FE00000221A605A601A813B461846FFF7C6FC59
:102FF0003B881B0A9BB287F8DF303B8887F8DE30BE
:10300000002000F075FB0021002000F0C9FC97F8BB
:10301000DF3007F120005A4A402100F013FF594ADF
:1030200007F12000012306CA00F094FC97F8DE3077
:1030300007F12000544A402100F004FF0F21002036
:1030400000F0AEFC4F4A07F12000012306CA00F051
:1030500081FCB7F8DC3007F120004C4A402100F039
:10306000F1FE1E21002000F09BFC464A07F12000E3
:10307000012306CA00F06EFC07F12000444B454ACC
:10308000402100F0DFFE2D21002000F089FC3D4AA8
:1030900007F12000012306CA00F05CFC00F04AFBA7
:1030A0004FF4FA70FDF78AFDFFF7B0FC0020FFF740
:1030B00089FD034687F8CB3097F8CB30364A3C2160
:1030C000364800F0BFFE002000F012FB0021002077
:1030D00000F066FC2B4A012306CA304800F03AFC97
:1030E0000F21002000F05CFC264A012306CA2C4870
:1030F00000F030FC00F01EFB4FF4FA60FDF75EFDBF
:1031000000210020FFF781FD4FF44870FDF756FDC8
:1031100007F11803002219460020FFF78DFD3B7EC2
:1031200018467B7EBA7EF97E029101920093034697
:103130001C4A3C21194800F085FE002000F0D8FA16
:103140000021002000F02CFC0E4A012306CA13487F
:1031500000F000FC3B7F18467B7FBA7FF97F02912D
:1031600022E000BFD06F0008147000086C0500203A
:10317000B805002000F80108B800002024700008FD
:10318000546F000810000020606F00086C6F00088A
:1031900065766F6D7C6F0008846F0008E80500207D
:1031A000886F0008906F0008019200930346484A18
:1031B0003C21484800F046FE0F21002000F0F0FBC3
:1031C000454A012306CA434800F0C4FB7B7E1B022C
:1031D0001AB23B7E1BB213431BB2A7F8C830B7F834
:1031E000C8301846FFF74FFD0346002B03D02D23B0
:1031F00087F8F73002E02B2387F8F730B7F8C830AC
:103200001846FFF752FDC7F8C40097F8F730334A65
:103210003C21304800F016FE1E21002000F0C0FBCB
:103220002D4A012306CA2B4800F094FB2C49D7F8FD
:10323000C400FDF711FB03461846FDF703F90346EA
:103240000C461846214600F03FFD03460C46184642
:103250002146FDF7D3F9034687F8C33097F8F740C6
:10326000D7F8C400FDF7EEF802460B4610461946A3
:1032700000F02AFD02460B4610461946FDF7BEF93E
:103280000346DBB2184697F8C320164BA3FB021384
:10329000D9080B469B000B445B00D31ADBB20193A9
:1032A00000902346104A3C210A4800F0CBFD2D2116
:1032B000002000F075FB084A012306CA054800F00B
:1032C00049FB00F037FA9620FDF778FC18E700BFBD
:1032D000A86F0008E805002010000020C06F00085B
:1032E00000002041CDCCCCCCC46F000880B590B09C
:1032F00000AF07F1180328220021184600F09AFDBC
:103300003B1D00221A605A609A60DA601A6101233C
:10331000BB614FF48033FB6100233B620123BB623E
:1033200002237B634FF48033BB634FF4E013FB63F2
:1033300007F118031846FEF717FD0346002B01D0CE
:1033400000F04CF90F237B600223BB600023FB607D
:103350004FF480633B6100237B613B1D02211846D3
:10336000FEF766FF0346002B01D000F037F900BFDF
:103370004037BD4680BD000080B500AF064B074A10
:103380001A600548FDF71DFD0346002B01D000F033
:1033900025F900BF80BD00BF580500200030024065
:1033A00080B500AF124B134A1A60114B124A5A6093
:1033B0000F4B00229A600E4B0022DA600C4B4FF448
:1033C00080421A610A4B00225A61094B00229A611D
:1033D000074B0022DA61064B00221A620448FEF70E
:1033E000C3F80346002B01D000F0F8F800BF80BD01
:1033F0000405002000540040A086010080B58CB078
:1034000000AF07F10C0324220021184600F012FD42
:103410003B1D00221A605A60204B214A1A601F4B44
:1034200000225A601D4B00229A601C4B0422DA6075
:103430001A4B00221A61194B00229A610323FB6088
:1034400000233B6101237B610023BB610023FB61FF
:1034500000233B6201237B620023BB620023FB62EB
:1034600007F10C0319460D48FFF78CF80346002BB3
:1034700001D000F0B3F800237B600023BB603B1D4C
:1034800019460648FFF7D4F90346002B01D000F097
:10349000A5F800BF3037BD4680BD00BF6C050020D9
:1034A0000004004080B588B000AF07F1100300228F
:1034B0001A605A609A60DA60444A444B9B6943F050
:1034C00010039361414B9B6903F01003FB60FB68A1
:1034D0003E4A3E4B9B6943F0200393613B4B9B6903
:1034E00003F02003BB60BB68384A384B9B6943F04C
:1034F00004039361354B9B6903F004037B607B6895
:10350000324A324B9B6943F0080393612F4B9B690E
:1035100003F008033B603B6801224FF400512C4844
:10352000FEF70AF8002208212A48FEF705F80022D3
:103530004FF400612848FDF7FFFF4FF400533B6153
:1035400001237B610023BB610123FB6107F11003B1
:1035500019461F48FDF7D0FD02233B6100237B6124
:103560000023BB6107F1100319461A48FDF7C4FD9B
:1035700004233B6100237B610123BB6107F110033E
:1035800019461448FDF7B8FD08233B6101237B6110
:103590000023BB610223FB6107F1100319460D48AC
:1035A000FDF7AAFD4FF400633B6101237B6100231B
:1035B000BB610223FB6107F1100319460648FDF7C2
:1035C0009BFD00BF2037BD4680BD00BF00100240FC
:1035D0000010014000080140000C014080B400AF21
:1035E00000BFBD4680BC704780B586B004AF0346BF
:1035F000FB710A23029301230193FB1D0093012316
:10360000002278210348FEF7B3F800BF0837BD4613
:1036100080BD00BF0405002080B500AF6420FDF729
:10362000CDFAAE20FFF7E0FF2020FFF7DDFF1020EE
:10363000FFF7DAFFB020FFF7D7FFC820FFF7D4FF6E
:103640000020FFF7D1FF1020FFF7CEFF4020FFF74B
:10365000CBFF8120FFF7C8FFFF20FFF7C5FFA120A8
:10366000FFF7C2FFA620FFF7BFFFA820FFF7BCFFB0
:103670003F20FFF7B9FFA420FFF7B6FFD320FFF7E5
:10368000B3FF0020FFF7B0FFD520FFF7ADFFF0201C
:10369000FFF7AAFFD920FFF7A7FF2220FFF7A4FF1B
:1036A000DA20FFF7A1FF1220FFF79EFFDB20FFF7D4
:1036B0009BFF2020FFF798FF8D20FFF795FF142038
:1036C000FFF792FFAF20FFF78FFF002000F010F808
:1036D00000F030F8054B00221A80044B00225A807B
:1036E000024B01225A710123184680BDC4040020F8
:1036F00080B485B000AF0346FB710023FB600DE092
:10370000FB79002B01D1002100E0FF21084AFB6872
:1037100013440A461A70FB680133FB60FB68B3F57B
:10372000806FEDD300BF1437BD4680BC704700BF2B
:10373000C400002080B586B004AF0023FB711DE0FB
:10374000FB79503BDBB21846FFF74EFF0020FFF736
:103750004BFF1020FFF748FFFB79DB010B4A1344B6
:103760006422029280220192009301234022782158
:103770000748FDF7FDFFFB790133FB71FB79072B50
:10378000DED900BF0837BD4680BD00BFC4000020A1
:103790000405002080B483B000AF0346FB710B46E4
:1037A000BB7113467B7197F90730002B48DBBB795F
:1037B0003F2B45D8254B1B79002B06D07B79002B5E
:1037C0000CBF01230023DBB27B717B79012B1AD163
:1037D000FA79BB79DB08D8B20346DB011344F979E7
:1037E0000246D2010A441A498A5C51B2BA7902F0FF
:1037F0000702012000FA02F252B20A4352B2D1B2D9
:10380000134AD1541DE0FA79BB79DB08D8B20346DC
:10381000DB011344F9790246D2010A440C498A5C5F
:1038200051B2BA7902F00702012000FA02F252B254
:10383000D24352B20A4052B2D1B2054AD15400E04A
:1038400000BF0C37BD4680BC704700BFC4040020D9
:10385000C400002090B589B000AF0446381D80E850
:1038600006001A462346FB731346BB73384B1B886E
:103870001A463B7913447F2B06DC354B5B881A468E
:103880007B7913443F2B01DD00235DE00023FB61C6
:103890004CE0BA68FB7B203B797901FB03F31946C6
:1038A000FB690B445B0013441B887B610023BB61F5
:1038B00034E07A69BB6902FA03F303F40043002B96
:1038C00012D0234B1B88DAB2BB69DBB21344D8B2E7
:1038D0001F4B5B88DAB2FB69DBB21344DBB2BA7B05
:1038E0001946FFF757FF16E0194B1B88DAB2BB6980
:1038F000DBB21344D8B2164B5B88DAB2FB69DBB299
:103900001344D9B2BB7B002B0CBF01230023DBB2D5
:103910001A46FFF73FFFBB690133BB613B791A468B
:10392000BB699A42C5D8FB690133FB617B791A46B2
:10393000FB699A42ADD8064B1A883B799BB2134477
:103940009AB2034B1A80FB7B18462437BD4690BDC4
:10395000C404002080B584B000AFF860381D80E852
:103960000600FB7012E0FB681878FB783A1D06CA67
:10397000FFF770FF03461A46FB681B789A4202D095
:10398000FB681B7808E0FB680133FB60FB681B7871
:10399000002BE8D1FB681B7818461037BD4680BD68
:1039A00080B483B000AF03460A46FB711346BB7177
:1039B000FB799AB2054B1A80BB799AB2034B5A80B5
:1039C00000BF0C37BD4680BC704700BFC404002058
:1039D00080B485B000AF154A144B9B6943F00103D6
:1039E0009361124B9B6903F00103BB60BB680F4AF4
:1039F0000E4BDB6943F08053D3610C4BDB6903F062
:103A000080537B607B680A4B5B68FB60FB6823F03C
:103A1000E063FB60FB6843F00073FB60044AFB68F3
:103A2000536000BF1437BD4680BC70470010024091
:103A30000000014080B485B000AF78607B681B68EF
:103A4000094A93420BD1094A084B5B6943F0400392
:103A50005361064B5B6903F04003FB60FB6800BFEA
:103A60001437BD4680BC7047003002400010024051
:103A700080B588B000AF786007F1100300221A60AB
:103A80005A609A60DA607B681B68154A934223D1BA
:103A9000144A144B9B6943F008039361114B9B69D3
:103AA00003F00803FB60FB68C0233B6112237B61CA
:103AB0000323FB6107F1100319460B48FDF71CFBBC
:103AC000084A084BDB6943F40013D361054BDB69FB
:103AD00003F40013BB60BB6800BF2037BD4680BD48
:103AE0000054004000100240000C014080B588B036
:103AF00000AF786007F1100300221A605A609A60E4
:103B0000DA607B681B68154A934223D1144A144B30
:103B1000DB6943F00203D361114BDB6903F002035D
:103B2000FB60FB680E4A0E4B9B6943F004039361F4
:103B30000B4B9B6903F00403BB60BB68C0233B6174
:103B400000237B610123BB6107F11003194605487F
:103B5000FDF7D2FA00BF2037BD4680BD000400400B
:103B6000001002400008014080B400AF00BFBD4615
:103B700080BC704780B400AFFEE780B400AFFEE7C2
:103B800080B400AFFEE780B400AFFEE780B400AFC2
:103B900000BFBD4680BC704780B400AF00BFBD46CB
:103BA00080BC704780B400AF00BFBD4680BC70478A
:103BB00080B500AFFCF7E6FF00BF80BD80B584B0E4
:103BC00000AF7860114B1B68002B02D10F4B104ADD
:103BD0001A600E4B1B68FB600C4B1A687B68134421
:103BE0006A46934207D900F0FBF802460C231360A3
:103BF0004FF0FF3306E0054B1A687B681344034A15
:103C00001360FB6818461037BD4680BDD004002005
:103C10005006002080B400AF154A154B1B6843F0D6
:103C2000010313601249124B5A68124B13404B6048
:103C30000F4A0F4B1B6823F0847323F48033136007
:103C40000B4A0B4B1B6823F480231360084A084B74
:103C50005B6823F4FE035360054B4FF41F029A6028
:103C6000054B4FF000629A6000BFBD4680BC7047B4
:103C7000001002400000FFF800ED00E0002103E02A
:103C80000B4B5B58435004310A480B4B42189A4285
:103C9000F6D30A4A02E0002342F8043B084B9A425A
:103CA000F9D3FFF7B7FF00F0A1F8FFF7B1F87047BD
:103CB0008470000800000020880000208800002098
:103CC0004C060020FEE70000C1F30A522DE9F8433C
:103CD000A2F2FF36132E0B4604460D4688460746D1
:103CE0001DDC002E40DB3C4A864642FA06F901EA1A
:103CF0000902024318D036A3D3E90023FCF744FAA3
:103D000000220023FCF770FC20B1002D42DB0027CD
:103D100028EA09053C4629462046BDE8F883332EAB
:103D200006DDB6F5806F2FD019462046BDE8F88332
:103D30004FF0FF39A2F2134229FA02F910EA090FF3
:103D4000F2D023A3D3E90023FCF71EFA00220023BC
:103D5000FCF74AFC0028DDD0002D21DB454627EA90
:103D600009073C462946D7E719A3D3E90023FCF706
:103D70000BFA00220023FCF737FC0028CAD0002DE4
:103D800019DB00273D46C5E702460B46FCF7FCF968
:103D90000446CAE74FF4801343FA06F6B044B6E788
:103DA000142E10D00123C6F1340603FA06F6371993
:103DB00028BF9844D2E725F00042084B224318BFA1
:103DC0001D460027A6E705F10108C7E7AFF300800D
:103DD0009C7500883CE4377EFFFF0F000000F0BFB9
:103DE000014B1868704700BF2400002070B5002503
:103DF0000C4E0D4CA41BA410A54209D100F05EFC92
:103E000000250A4E0A4CA41BA410A54205D170BD82
:103E100056F8253098470135EEE756F82530984793
:103E20000135F2E77C7000087C7000087C700008A7
:103E30008070000803460244934200D1704703F8A3
:103E4000011BF9E70CB430B5174B0C1E9DB01D6873
:103E500008DA8B234FF0FF302B601DB0BDE83040F7
:103E600002B070474FF40273ADF814300CBF234614
:103E700004F1FF33049307934FF6FF73029006900B
:103E8000ADF81630209A21AB02A92846019300F024
:103E900069F8431CBCBF8B232B60002CDDD00022B3
:103EA000029B1A70D9E700BF240000202DE9F047DB
:103EB0008E6882469E420C469146984635D88A893D
:103EC00012F4906F31D00223256809696F1A656971
:103ED00005EB450595FBF3F508F101033B449D42D5
:103EE00038BF1D46530531D5294600F047FB06462D
:103EF00050B90C23CAF80030A3894FF0FF3043F0CB
:103F00004003A381BDE8F0873A46216900F0C4FA76
:103F1000A38923F4906343F08003A38126613E4488
:103F2000266046466561ED1BA560464528BF4646AE
:103F300049463246206800F0BAFAA36800209B1B6D
:103F4000A36023681E442660BDE8F0872A4600F07F
:103F500073FB06460028E1D12169504600F0C2FA01
:103F6000C7E700002DE9F04F9DB003938B89804691
:103F70001C060D4616460FD50B696BB9402100F0A3
:103F8000FDFA2860286128B90C23C8F800304FF0EA
:103F9000FF30C4E040236B610023099320238DF898
:103FA000293030234FF0010B8DF82A3037463C463C
:103FB00014F8013B002B3CD1B7EB060A0BD053465B
:103FC000324629464046FFF771FF013000F0A280DB
:103FD000099B534409933B78002B00F09B800023FE
:103FE0004FF0FF3204930793059206938DF85330F8
:103FF0001A9305222178504800F040FA671C049B70
:10400000D8B9D90644BF20228DF853201A0744BFDF
:104010002B228DF8532022782A2A16D000210A203C
:10402000079A27463B780134303B092B50D9C9B158
:1040300011E0252BC0D02746B9E73F4A3C46801AFD
:104040000BFA00F018430490D3E7039A111D12688D
:104050000391002A01DB079204E0524243F002037D
:10406000079204933B782E2B0DD17B78791C2A2B59
:1040700032D1039B02371A1D1B680392002BB8BF75
:104080004FF0FF3305932D4C03223978204600F082
:10409000F5F938B14023001B03FA00F0049B013707
:1040A000034304933978062225487E1C8DF8281096
:1040B00000F0E4F9002835D0224BFBB9039B07330D
:1040C00023F0070308330393099B4B4409936DE7DF
:1040D00000FB02320121A4E700230A2418460593BD
:1040E0000F463A780131303A092A03D9002BCAD059
:1040F0000590C8E704FB00200123F1E703AB009320
:104100002A46114B04A94046AFF30080B0F1FF3FAF
:104110008146D9D1AB895B063FF539AF09981DB00F
:10412000BDE8F08F03AB00932A46074B04A9404635
:1041300000F084F8EAE700BF487000084E700008FD
:104140005270000800000000AD3E00082DE9F04765
:1041500091461F468A680B6906469342B8BF1346CC
:10416000C9F8003091F843200C46DDF8208012B1E8
:104170000133C9F800302368990642BFD9F80030EE
:104180000233C9F80030256815F0060507D104F19F
:10419000190AE368D9F800209B1A9D422ADB94F89B
:1041A00043302268003318BF012392062FD404F154
:1041B000430239463046C047013022D02368E568C3
:1041C00003F00603042B18BF0025D9F800204FF098
:1041D000000908BFAD1AA368226908BF25EAE57582
:1041E0009342C4BF9B1AED181A344D451BD10020D1
:1041F000BDE8F0870123524639463046C0470130BA
:1042000003D14FF0FF30BDE8F0870135C1E7302022
:10421000E11881F843005A1C94F8451022440233F7
:1042200082F84310C3E70123224639463046C0478F
:104230000130E6D009F10109D7E700002DE9F0438C
:1042400017460A7E85B06E2A984606460C460C9B99
:1042500001F1430E00F0BC801AD8632A2ED00AD890
:10426000002A00F0C880582A00F08A8004F1420534
:1042700084F842202AE0642A01D0692AF6D1216814
:104280001A6811F0800F23D0111D1960136827E000
:10429000732A00F0B48008D86F2A2AD0702AE5D19A
:1042A0000A6842F020020A6003E0752A21D0782AC9
:1042B000DCD178226F4984F8452064E01A6801F166
:1042C0004205111D1960136884F842300123A3E0F0
:1042D00011F0400F02F104011960D7D0B2F900309B
:1042E000002B03DA2D225B4284F8432062490A2224
:1042F00017E02068196810F0800F03D0081D1860BF
:104300000B6806E010F0400F01F104001860F7D0D0
:104310000B886F2A14BF0A2208225749002084F80C
:1043200043006568002DA560C0F29C80206820F0E5
:1043300004002060002B3FD1002D40F09580754691
:10434000082A0BD12368DA0708D5236962689A42E4
:10435000DEBF302305F8013C05F1FF35AEEB050368
:104360002361CDF800803B4603AA21463046FFF783
:10437000EDFE013055D14FF0FF3005B0BDE8F083C0
:1043800081F845203C492268186812F0800F00F13E
:1043900004051D6001D0036802E05506FBD50388C3
:1043A000D00744BF42F0200222601BB9226822F0ED
:1043B000200222601022B1E77546B3FBF2F002FB47
:1043C0001033CB5C05F8013D03460028F5D1B7E773
:1043D00008681A6810F0800F496904D0101D186031
:1043E0001368196007E010F0400F02F10400186034
:1043F0001368F6D01980002375462361B1E71A6867
:10440000111D1960156800216268284600F036F811
:1044100008B1401B606063682361002384F8433067
:104420009FE723692A4639463046C0470130A2D06B
:1044300023689B0707D5002504F11909E368039A4F
:104440009B1A9D4205DBE068039B9842B8BF184663
:1044500093E701234A4639463046C04701308AD0A7
:104460000135EBE7002BA7D10B7804F1420584F866
:10447000423065E76A7000085970000810B5C9B28B
:1044800002449042034601D1002010BD1C78013047
:104490008C42F6D1184610BD10B5431E0A44914215
:1044A00000D110BD11F8014B03F8014FF7E7884226
:1044B00010B501EB020303D8421E99420CD110BD86
:1044C0009842F9D28118D21AD34200D110BD13F804
:1044D000014D01F8014DF7E711F8014B02F8014FCA
:1044E000EBE7000038B50546002943D051F8043CFD
:1044F0000C1F002BB8BFE41800F0D4F81E4A136854
:10450000104633B9636014602846BDE8384000F0B7
:10451000CAB8A3420BD921686218934201BF1A6836
:104520005B685218226063600460EDE713465A68C6
:104530000AB1A242FAD919685818A0420BD12068D2
:104540000144581882421960DED110685268014453
:1045500019605A60D8E702D90C232B60D4E7206891
:1045600021188A4201BF11685268091821606260EF
:104570005C60C9E738BD00BFD404002070B5CD1C15
:1045800025F0030508350C2D38BF0C25002D0646F7
:1045900001DBA94203D90C233360002070BD00F079
:1045A00081F8234A1468214691B9224C23681BB92B
:1045B000304600F067F820602946304600F062F887
:1045C000431C26D10C233046336000F06CF8E4E73E
:1045D0000B685B1B1AD40B2B0FD90B60CC18CD507A
:1045E000304600F060F804F10B00231D20F00700B6
:1045F000C31A1BD05A42E25070BD8C420BBF636895
:104600004B681360636018BF0C46E9E70C464968C5
:10461000CAE7C41C24F00304A04205D0211A304686
:1046200000F030F80130CDD02560D9E770BD00BF73
:10463000D4040020D8040020F8B5074614460E46DE
:1046400021B91146BDE8F840FFF798BF22B9FFF73E
:1046500049FF25462846F8BD00F026F884420FD9C8
:1046600021463846FFF78AFF05460028F2D031463A
:104670002246FFF711FF31463846FFF733FFE9E7DF
:104680003546E7E738B50023054C05460846236064
:10469000FFF794FA431C02D1236803B12B6038BDA5
:1046A000480600207047704751F8040C0028A0F11C
:1046B0000400BCBF0B58C01870470000F8B500BF1D
:1046C000F8BC08BC9E467047F8B500BFF8BC08BCF3
:0446D0009E4670474B
:1046D40002030405060708090A0B0C0D0E0F10103F
:1046E40001020000455220256C750A0053554D20E7
:1046F400256C7520256C750A000000000000000080
:1047040000000000000000000000000000000000A5
:104714000010001000100010001000100000001025
:10472400000000000028002800280000000000000D
:10473400000000000000000000240024007C00248D
:104744000048007C00480048000000000038005485
:1047540000500038001400540054003800100000C9
:1047640000200054005800300028005400140008B1
:104774000000000000100028002800100034004849
:104784000048003400000000001000100010000079
:1047940000000000000000000000000000080010FD
:1047A400002000200020002000200020001000082D
:1047B4000020001000080008000800080008000895
:1047C4000010002000100038001000280000000035
:1047D40000000000000000000000000000100010B5
:1047E400007C001000100000000000000000000029
:1047F4000000000000000000000000100010001085
:10480400000000000000000000000038000000006C
:104814000000000000000000000000000000000094
:104824000000001000000000000800080010001044
:104834000010001000200020000000000038004498
:1048440000440054004400440044003800000000C8
:104854000010003000500010001000100010001074
:104864000000000000380044004400040008001068
:104874000020007C00000000003800440004001800
:104884000004000400440038000000000008001880
:10489400002800280048007C0008000800000000F0
:1048A400007C00400040007800040004004400380C
:1048B4000000000000380044004000780044004438
:1048C4000044003800000000007C000400080010D0
:1048D40000100020002000200000000000380044E8
:1048E4000044003800440044004400380000000044
:1048F4000038004400440044003C000400440038F4
:104904000000000000000000001000000000000093
:104914000000001000000000000000000000001073
:104924000000000000000010001000100000000053
:10493400000C003000400030000C000000000000BB
:10494400000000000000007C0000007C000000006B
:1049540000000000000000000060001800040018BF
:10496400006000000000000000380044000400085B
:104974000010001000000010000000000038004487
:10498400004C0054005C004000400038000000006F
:1049940000100028002800280028007C004400445F
:1049A4000000000000780044004400780044004403
:1049B400004400780000000000380044004000403B
:1049C400004000400044003800000000007000482F
:1049D400004400440044004400480070000000000B
:1049E400007C00400040007C004000400040007C0F
:1049F40000000000007C00400040007800400040BF
:104A04000040004000000000003800440040004026
:104A1400005C0044004400380000000000440044EE
:104A24000044007C004400440044004400000000B2
:104A340000380010001000100010001000100038A2
:104A4400000000000004000400040004000400044A
:104A5400004400380000000000440048005000609A
:104A6400005000480048004400000000004000409E
:104A740000400040004000400040007C0000000076
:104A84000044006C006C00540044004400440044A2
:104A94000000000000440064006400540054004C12
:104AA400004C00440000000000380044004400446E
:104AB4000044004400440038000000000078004432
:104AC4000044004400780040004000400000000022
:104AD40000380044004400440044004400540038BA
:104AE40000040000007800440044004400780048BA
:104AF400004800440000000000380044004000303A
:104B0400000800040044003800000000007C00108D
:104B14000010001000100010001000100000000031
:104B2400004400440044004400440044004400386D
:104B3400000000000044004400440028002800282D
:104B44000010001000000000004400440054005411
:104B54000054006C002800280000000000440028D5
:104B64000028001000100028002800440000000065
:104B74000044004400280028001000100010001019
:104B840000000000007C0004000800100010002059
:104B94000040007C0000000000180010001000100D
:104BA4000010001000100010001000180020002059
:104BB40000100010001000100008000800000000A1
:104BC4000030001000100010001000100010001041
:104BD40000100030001000280028004400000000ED
:104BE40000000000000000000000000000000000C1
:104BF4000000000000000000000000FE0020001083
:104C040000000000000000000000000000000000A0
:104C14000000000000380044003C0044004C003414
:104C240000000000004000400058006400440044BC
:104C34000064005800000000000000000038004438
:104C4400004000400044003800000000000400045C
:104C54000034004C00440044004C003400000000C8
:104C64000000000000380044007C0040004400388C
:104C740000000000000C0010007C00100010001068
:104C84000010001000000000000000000034004C80
:104C940000440044004C003400040078004000400C
:104CA4000058006400440044004400440000000034
:104CB4000010000000700010001000100010001020
:104CC4000000000000100000007000100010001030
:104CD40000100010001000E00040004000480050A8
:104CE4000060005000480044000000000070001004
:104CF4000010001000100010001000100000000050
:104D04000000000000780054005400540054005483
:104D1400000000000000000000580064004400444B
:104D2400004400440000000000000000003800447B
:104D3400004400440044003800000000000000006B
:104D440000580064004400440064005800400040DF
:104D5400000000000034004C00440044004C0034C7
:104D640000040004000000000058006400400040FB
:104D74000040004000000000000000000038004433
:104D8400003000080044003800000000002000202B
:104D940000780020002000200020001800000000FF
:104DA400000000000044004400440044004C00346F
:104DB4000000000000000000004400440028002817
:104DC40000280010000000000000000000540054FF
:104DD4000054006C002800280000000000000000BF
:104DE40000440028001000100028004400000000C7
:104DF40000000000004400440028002800100010B7
:104E04000010006000000000007C0008001000207A
:104E14000040007C0000000000180010001000108A
:104E240000200020001000100010001800100010D6
:104E340000100010001000100010001000100010EE
:104E440000300010001000100008000800100010CE
:104E5400001000300000000000000074004C00004E
:104E6400000000000000000000000000000000003E
:104E7400000000000000000000000000000000002E
:104E84000000000000000000000000000000000C12
:104E9400000C000C000C000C000C000C000C000CAE
:104EA400000C000C0000000C000C000000000000CE
:104EB4000000001B001B001B001B001B0000000067
:104EC40000000000000000000000000000000000DE
:104ED4000000000000008019801980198019C07F2B
:104EE400C07F80190033C07FC07F0033003300339C
:104EF40000330000000000000000001E003F807529
:104F040080650074003C001E000780058065806594
:104F14008075003F001E00040004000000000070C3
:104F240000D840D8C0D880D900730006000C801B7C
:104F3400C036C066C046C006800300000000000002
:104F44000000001E003F003300330033001E000C3D
:104F5400C03CC066806380618063C03E801C0000EA
:104F6400000000000000000C000C000C000C000C01
:104F7400000000000000000000000000000000002D
:104F84000000000000000000800000010003000693
:104F940000060004000C000C000C000C000C000CBB
:104FA4000004000600060003000180000020001039
:104FB4000018000C000C00040006000600060006A1
:104FC400000600060004000C000C0018001000206D
:104FD4000000000C002D003F001E00330000000004
:104FE40000000000000000000000000000000000BD
:104FF40000000000000000000000000C000C000C89
:10500400000CC0FFC0FF000C000C000C000C0000E2
:10501400000000000000000000000000000000008C
:10502400000000000000000000000000000000007C
:105034000000000C000C0004000400080000000044
:105044000000000000000000000000000000001E3E
:10505400001E00000000000000000000000000002E
:10506400000000000000000000000000000000003C
:1050740000000000000000000000000C000C000014
:105084000000000000000003000300030006000607
:1050940000060006000C000C000C000C00180018A0
:1050A40000180000000000000000001E003F003354
:1050B400806180618061806D806D806180618061CC
:1050C4000033003F001E0000000000000000000646
:1050D400000E001E0036002600060006000600062C
:1050E400000600060006000600060000000000009E
:1050F4000000001E003F8073806180618001000316
:105104000006000C001800300060807F807F0000E3
:10511400000000000000001C003E00630063000368
:10512400000E000E00038001800180618073003F47
:10513400001E00000000000000000006000E000E2B
:10514400001E001E0016003600360066807F807F39
:105154000006000600060000000000000000007FBA
:10516400007F006000600060006E007F806380014B
:10517400800180618073003F001E00000000000079
:105184000000001E003F803380610060006E007FDD
:1051940080738061806180618033003F001E000065
:1051A400000000000000807F807F80010003000376
:1051B40000060006000C000C000C00080018001883
:1051C40000180000000000000000001E003F806383
:1051D400806180610021001E003F806180618061E8
:1051E4008061003F001E0000000000000000001E5F
:1051F400003F00738061806180618073803F801D07
:10520400800180610073003F001E00000000000068
:1052140000000000000000000000000C000C000072
:1052240000000000000000000000000C000C000062
:10523400000000000000000000000000000000006A
:10524400000C000C00000000000000000000000C36
:10525400000C00040004000800000000000000002E
:1052640080008003000E003800600038000E8003C8
:1052740080000000000000000000000000000000AA
:10528400000000000000807F807F00000000807F1D
:10529400807F00000000000000000000000000000B
:1052A400000000000000000000400070001C000727
:1052B40080010007001C0070004000000000000096
:1052C400000000000000001F803FC071C060C000EB
:1052D400C00180030007000E000C000C0000000C4D
:1052E400000C0000000000000000001E003F8031A0
:1052F40080718063806F806D806D806F80670060D7
:105304000032003E001C0000000000000000000EFF
:10531400000E001B001B001B001B80318031803FEE
:10532400803F8031C060C060C060000000000000A9
:105334000000007C007E0063006300630063007E65
:10534400007E0063806180618063007F007E0000D6
:10535400000000000000001E003F803180610060FA
:105364000060006000600060006080618031003F88
:10537400001E0000000000000000007C007F0063AD
:10538400806380618061806180618061806100638D
:105394000063007E007C0000000000000000807FAD
:1053A400807F0060006000600060007F007F00601C
:1053B400006000600060807F807F000000000000CB
:1053C4000000807F807F0060006000600060007FDC
:1053D400007F00600060006000600060006000000A
:1053E400000000000000001E003F8031806100606A
:1053F4000060006080638063806180618031803FF1
:10540400001E0000000000000000806180618061D7
:10541400806180618061807F807F80618061806144
:105424008061806180610000000000000000003F96
:10543400003F000C000C000C000C000C000C000CD5
:10544400000C000C000C003F003F000000000000B6
:1054540000008001800180018001800180018001C1
:1054640080018001806180618073003F001E000024
:10547400000000000000C0608061006300660066F8
:10548400006C0078007C00660066006380618061C7
:10549400C0600000000000000000006000600060C8
:1054A40000600060006000600060006000600060F8
:1054B4000060807F807F0000000000000000C07159
:1054C400C071C07BC07AC06AC06AC06EC064C0606C
:1054D400C060C060C060C060C06000000000000028
:1054E400000080718071807980798079806D806D11
:1054F400806D80658067806780678063806300005B
:10550400000000000000001E003F00338061806145
:105514008061806180618061806180610033003FCF
:10552400001E0000000000000000007E007F806379
:105534008061806180618063007F007E0060006024
:105544000060006000600000000000000000001E19
:10555400003F00338061806180618061806180618F
:10556400806580670033803F401E0000000000001B
:105574000000007E007F8063806180618063007F23
:10558400007E00660063006380618061C06000008B
:10559400000000000000000E001F80318031003048
:1055A4000038001E00078003806180618031003F65
:1055B400001E0000000000000000C0FFC0FF000C3F
:1055C400000C000C000C000C000C000C000C000C77
:1055D400000C000C000C00000000000000008061C2
:1055E40080618061806180618061806180618061AF
:1055F400806180618073003F001E00000000000095
:105604000000C060C060C060803180318031001B08
:10561400001B001B001B000E000E000E0004000007
:10562400000000000000C0C0C0C0C0C0C0C0C0C0F6
:10563400C0CC804C804C805E8052805280738061EC
:1056440080610000000000000000C0C08060806134
:105654000033003B001E000C000C001E001F003B2A
:1056640080718061C0C00000000000000000C0C064
:105674008061806100330033001E001E000C000CAA
:10568400000C000C000C000C000C000000000000DA
:105694000000803F803F8001000300030006000CEF
:1056A400000C0018001800300060807F807F00002C
:1056B40000000000000F000F000C000C000C000C98
:1056C400000C000C000C000C000C000C000C000C76
:1056D400000C000C000F000F000000180018001848
:1056E400000C000C000C000C00060006000600066E
:1056F400000300030003000000000000001E001E61
:105704000006000600060006000600060006000665
:10571400000600060006000600060006001E001E25
:105724000000000C000C001E0012003300338061E6
:105734008061000000000000000000000000000084
:105744000000000000000000000000000000000055
:105754000000000000000000000000000000000045
:1057640000000000E0FF0000000000380018000CFA
:105774000000000000000000000000000000000025
:105784000000000000000000000000000000000015
:10579400000000000000001F803F80618001801F26
:1057A400803F80618063807FC0380000000000007B
:1057B40000000060006000600060006E007F807385
:1057C40080618061806180618073007F006E000071
:1057D4000000000000000000000000000000001EA7
:1057E400003F807380610060006080618073003FCF
:1057F400001E000000000000000080018001800104
:105804008001801D803F8073806180618061806140
:105814008073803F801D0000000000000000000035
:10582400000000000000001E003F00738061807FC4
:10583400807F00608071003F001E000000000000B7
:105844000000C007C00F000C000C807F807F000C9C
:10585400000C000C000C000C000C000C000C0000F0
:10586400000000000000000000000000801D803FD8
:10587400807380618061806180618073803F801D5E
:1058840080018063007F003E0000006000600060D3
:105894000060006F807F80718061806180618061C1
:1058A400806180618061000000000000000000064B
:1058B400000600000000003E003E00060006000650
:1058C40000060006000600060006000000000000B6
:1058D4000006000600000000003E003E0006000630
:1058E4000006000600060006000600060006004644
:1058F400007E003C00000060006000600060806189
:1059040000630066006C007C0076006300638061C5
:10591400C0600000000000000000003E003E0006E1
:105924000006000600060006000600060006000643
:105934000006000600060000000000000000000051
:1059440000000000000080DDC0FFC0CEC0CCC0CC91
:10595400C0CCC0CCC0CCC0CCC0CC00000000000087
:1059640000000000000000000000006F807F8071D4
:1059740080618061806180618061806180610000FC
:105984000000000000000000000000000000001EF5
:10599400003F807380618061806180618073003F1B
:1059A400001E0000000000000000000000000000D5
:1059B400006E007F8073806180618061806180738C
:1059C400007F006E00600060006000600000000066
:1059D40000000000801D803F8073806180618061D1
:1059E40080618073803F801D80018001800180017F
:1059F400000000000000000000000067803F003944
:105A04000030003000300030003000300030000042
:105A14000000000000000000000000000000001E64
:105A2400803F80610060007F803F80018061007F53
:105A3400001E000000000000000000000008001824
:105A44000018007F007F00180018001800180018C4
:105A54000018801F800F00000000000000000000FC
:105A640000000000000080618061806180618061CD
:105A7400806180618063807F803D000000000000C1
:105A840000000000000000000000C0608031803190
:105A94008031001B001B001B000E000E00060000DE
:105AA400000000000000000000000000000080DD95
:105AB40080DD80DD00550055005500770077002219
:105AC40000220000000000000000000000000000B0
